:100000000C9431010C9459010C9459010C94590130
:100010000C9459010C9459010C9459010C945901F8
:100020000C9459010C9459010C9459010C945901E8
:100030000C9459010C9459010C9459010C945901D8
:100040000C9485010C9459010C9444030C946A039C
:100050000C9459010C9459010C9459010C945901B8
:100060000C94B9050C94590177057B057B057B053C
:100070007B057B057B057B057B047B057B057B0581
:100080007B057B057B057B057B047B057B057B0571
:100090007B057B057B057B0584047B057B057B0558
:1000A0007B057B057B057B05A8047B057B057B0524
:1000B0007B057B057B057B0584047B057B057B0538
:1000C0007B057B057B057B05AE047B057B057B05FE
:1000D0007B057B057B057B05B4047B057B057B05E8
:1000E0007B057B057B057B05C4047B057B057B05C8
:1000F0007B057B057B057B05EB047B057B057B0591
:100100007B057B057B057B05BA047B057B057B05B1
:100110007B057B057B057B05D2047B057B057B0589
:100120007B057B057B057B05EF047B057B057B055C
:100130007B057B057B057B05EF047B057B057B054C
:100140007B057B057B057B05EF047B057B057B053C
:100150007B057B057B057B05EF047B057B057B052C
:100160007B057B057B057B05FA047B057B057B0511
:100170007B057B057B057B052E057B057B057B05CC
:100180007B057B057B057B05FA047B057B057B05F1
:100190007B057B057B057B052E057B057B057B05AC
:1001A0007B057B057B057B0517057B057B057B05B3
:1001B0007B057B057B057B0533057B057B057B0587
:1001C0007B057B057B057B0533057B057B057B0577
:1001D0007B057B057B057B054E057B057B057B054C
:1001E0007B057B057B057B056E057B057B057B051C
:1001F0007B057B057B057B056E057B057B057B050C
:100200007B057B057B057B057B057B057B057B05EE
:100210007B057B057B057B057B057B057B057B05DE
:100220007B057B057B057B057B057B057B057B05CE
:100230007B057B057B057B057B057B057B057B05BE
:100240007B057B057B057B057B057B057B057B05AE
:100250007B057B057B057B0574059003DF05970314
:10026000E60511241FBECFEFD8E0DEBFCDBF11E001
:10027000A0E0B1E0E4E9F1E102C005900D92AE36F4
:10028000B107D9F722E0AEE6B1E001C01D92A43A71
:10029000B207E1F711E0CFE2D1E004C02197FE01FF
:1002A0000E94B708CD32D107C9F70E94ED050C9422
:1002B000BD080C940000FC012081211116C021E032
:1002C0002083F89481E0882369F085B58A7F85BD15
:1002D00085B5826085BDEEE6F0E080818160808337
:1002E00080E0F1CF789481E0089580E00895FC01EA
:1002F000418152816381748140585F4F6F4F7F4FBE
:10030000418352836383748308951F920F920FB6C3
:100310000F9211242F933F934F935F936F937F938B
:100320008F939F93AF93BF93EF93FF938EE691E0EC
:100330000E947701FF91EF91BF91AF919F918F91B3
:100340007F916F915F914F913F912F910F900FBED1
:100350000F901F901895CF92DF92EF92FF920F931C
:100360001F93FC0172836183548343833683258307
:1003700010870783F286E186D486C3861F910F918A
:10038000FF90EF90DF90CF900895FC0112821182D0
:1003900014821382168215821086178212861186A5
:1003A0001486138608950F931F93CF93DF93FC0158
:1003B000208121113CC0EC0181E08083CB01BA0196
:1003C0000E944D0720E030E040E851E40E94DB0746
:1003D0009B01AC0160E074E284E79BE40E94AC0600
:1003E00020E030E040E85FE30E943F060E944808BA
:1003F0000E941E07062F172F8EE691E00E945B01D8
:10040000F89481E0882391F0E981FA811083EB81EF
:10041000FC810083E985FA85808186608083EF8195
:10042000F88580818869808380E0ECCF7894DF91C3
:10043000CF911F910F910895CF93DF93DC01FC01C1
:10044000E157FF4F208130E02F5F3F4F2F7330780F
:10045000332334F421503109206C3F6F2F5F3F4F1D
:10046000FD01E057FF4F90812917D1F3ED01C157EE
:10047000DF4F8881FD01E80FF11DE35BFF4F6083D3
:1004800028831796ED91FC91189780818062808374
:10049000DF91CF9108950E941C0208956AE00E94A6
:1004A0004B0208950F931F93CF93DF938C01EB01C1
:1004B0006881662329F02196C8010E944B02F8CF7B
:1004C000DF91CF911F910F9108950F931F93CF93B9
:1004D0008C01C62F643648F069E2C69F612D112455
:1004E00062956F70605D0E944B02CA30B8F08DEC6F
:1004F000C89F612D1124669566956695689F812D2C
:100500001124869586958695880F982F990F990FB7
:10051000890F681B605DC8010E944B028DECC89F6B
:10052000812D1124869586958695880F982F990F91
:10053000990F890F6C2F681B605DC8010E944B02E8
:10054000CF911F910F910895CF93DF93EC010E94FB
:100550006502CE010E944E02DF91CF910895CF93A4
:10056000DF93FC01E357FF4F3081EC01AB85BC8585
:100570002C91DC01A30FB11D1D962C93208130E03E
:100580002F5F3F4F2F733078332334F421503109DC
:10059000206C3F6F2F5F3F4FFC01E357FF4F2083DD
:1005A000DF91CF910895CF93DF93FC01E157FF4F87
:1005B000308131962081321709F1DC011B96CD91F3
:1005C000DC911C97DF012081FC01E20FF11DE35B50
:1005D000FF4F208128832C9130E02F5F3F4F2F73F6
:1005E0003078332334F421503109206C3F6F2F5F72
:1005F0003F4FFC01E057FF4F208308C0DC011796F6
:10060000ED91FC91189780818F7D8083DF91CF9150
:100610000895AF92BF92CF92DF92EF92FF920F9325
:100620001F93CF93DF93EC015B010197C9F46F3FF8
:100630007F4FB1F40F2EF6ECCF2ED12CF02D0F2ED4
:10064000F2ECEF2EF12CF02D01EC10E020EC30E07C
:1006500044EC50E065EC70E083E791E00E94AB0170
:10066000CD2B39F4AB20A09421F483E791E00E94D4
:10067000C501DF91CF911F910F91FF90EF90DF9017
:10068000CF90BF90AF9008951F920F920FB60F9228
:1006900011242F933F934F935F936F937F938F9387
:1006A0009F93AF93BF93EF93FF9383E791E00E94F3
:1006B000AF02FF91EF91BF91AF919F918F917F9189
:1006C0006F915F914F913F912F910F900FBE0F90BF
:1006D0001F9018951F920F920FB60F9211242F930F
:1006E0003F934F935F936F937F938F939F93AF93BA
:1006F000BF93EF93FF9383E791E00E94D302FF91B2
:10070000EF91BF91AF919F918F917F916F915F9189
:100710004F913F912F910F900FBE0F901F90189502
:100720006FEF7FEF81E090E00E94090308956FEF83
:100730007FEF80E090E00E9409030895CF92DF925E
:10074000EF92FF920F931F93FC0171A360A353A339
:1007500042A335A324A317A306A3F1A6E0A6D3A61C
:10076000C2A61F910F91FF90EF90DF90CF90089558
:10077000FC0111A210A213A212A215A214A217A288
:1007800016A211A610A613A612A60895CF93DF9362
:10079000FC019A01AB0181A9811118C025A736A7D8
:1007A00047A750ABC0A1D1A160E074E284EF90E014
:1007B0000E949508DA01C9014097A109B109B695CF
:1007C000A79597958795888381E001C080E0DF91A8
:1007D000CF910895CF93DF93FC0124A521111BC075
:1007E000EC0181E084A711AA12AA83AB14AA87B1F5
:1007F0008F7C87B988B1806388B9CF010E94C60316
:10080000F89481E0882331F0E8A5F9A585E4808398
:1008100080E0F8CF7894DF91CF910895FC0181A911
:1008200081110BC092A99111FDCF82E082AB660FBE
:1008300066AB17AA10AE81E0089580E00895FC0130
:1008400081A9811122C063AB8FEF85AB84A9882376
:1008500051F014AAA6A1B7A186A98C93A0A5B1A511
:1008600085EC8C9304C0A0A5B1A585EE8C9392A9CC
:100870009230E9F385A98F3F51F085A9803249F084
:1008800085A9803341F483E0089580E0089581E0F4
:10089000089582E0089584E0089561E00E941F04B5
:1008A0000895DC019896ED91FC91999725EC2083B1
:1008B000D2961C920895DC019896ED91FC9199973F
:1008C00085ED80839896ED91FC919997908194FDA8
:1008D000F9CFD2961C920895CF93DF93EC01EAA151
:1008E000FBA18081E82FE87F8E2F90E0FC01EC5C7B
:1008F000FF4F0C94B708EEA1FFA18EA98083E8A555
:10090000F9A585EC8083F7C09FA988AD981788F476
:10091000EEA1FFA18FA991E0980F9FABDE01A80F78
:10092000B11DD9968C918083E8A5F9A585EC8083CB
:10093000E2C08BA9882321F0CE010E945B04DBC0BA
:1009400081E08CABE8A5F9A584EA80831AAAD3C01C
:1009500080E28DABCE010E945B04CDC080E38DAB05
:10096000CE010E945B04C7C088E38DABCE010E941C
:100970005104C1C08FA991E0980F9FAB9091BB002B
:10098000FE01E80FF11D91AF9FA988AD981728F4DB
:10099000E8A5F9A585EC8083AEC0E8A5F9A585E8B2
:1009A0008083A9C08FA991E0980F9FAB9091BB0065
:1009B000FE01E80FF11D91AF8BA9882321F0CE0134
:1009C0000E945B0498C081E08CABE8A5F9A584EA9D
:1009D00080831AAA90C0CE010E945B048CC083E081
:1009E0008AABFE01E156FF4F1082E8A5F9A585EC20
:1009F000808381C0FE01E156FF4F8081803290F4F8
:100A0000808191E0980F9083EEA1FFA19081FE017B
:100A1000E80FF11DE158FF4F9083E8A5F9A585EC9B
:100A2000808369C0E8A5F9A585E8808364C0CE010C
:100A30000E945B04FE01E75AFF4F0190F081E02D18
:100A4000309741F0DE01A156BF4F6C91CE01815825
:100A50009F4F0995CE010E9451044DC0E8A5F9A50C
:100A600085E8808348C084E08AABFE01E358FF4FED
:100A7000108231961082B3970190F081E02D30976B
:100A800009F00995FE01E258FF4F8081811106C0EF
:100A900080818F5F80838FEFB19780832EA13FA1EC
:100AA000FE01E358FF4F808191E0980F9083DE01B3
:100AB000A80FB11DA35ABF4F8C91D9018C9390817F
:100AC00031968081981728F4E8A5F9A585EC8083F4
:100AD00012C0E8A5F9A585E880830DC0E8A5F9A5B1
:100AE00085EC80831AAA07C088EF8DAB04C01DAACD
:100AF000CE010E945B04DF91CF910895AF92BF9227
:100B0000CF92DF92EF92FF920F931F93CF93DF93D9
:100B1000EC015B010197C9F46F3F7F4FB1F40F2ED9
:100B2000FDEBCF2ED12CF02D0F2EFCEBEF2EF12C68
:100B3000F02D0BEB10E02AEB30E049EB50E068EBD6
:100B400070E084E092E00E949E03CD2B39F4AB204C
:100B5000A09421F484E092E00E94B803DF91CF9149
:100B60001F910F91FF90EF90DF90CF90BF90AF90CB
:100B700008951F920F920FB60F9211242F933F9357
:100B80004F935F936F937F938F939F93AF93BF9395
:100B9000EF93FF9384E092E00E946C04FF91EF9149
:100BA000BF91AF919F918F917F916F915F914F9185
:100BB0003F912F910F900FBE0F901F9018956FEFE0
:100BC0007FEF81E090E00E947E0508956FEF7FEF58
:100BD00080E090E00E947E05089540E85AE166E0DA
:100BE00070E084E092E00E94EA0340E052EC61E0B1
:100BF00070E083E791E00E94D30160E071E083E759
:100C000091E00E945202C1E0D0E0CF3740F56C2F56
:100C100084E092E00E940E0484E092E00E944D0481
:100C2000813019F0843071F018C062E171E083E71F
:100C300091E00E9452026C2F83E791E00E94A4028F
:100C4000DF5F0BC06FE271E083E791E00E94520228
:100C50006C2F83E791E00E94A402CF5FD6CFD11121
:100C600007C069E471E083E791E00E94520206C088
:100C70006FE571E083E791E00E945202FFCF505888
:100C8000BB27AA270E9457060C94A1070E9493072E
:100C900038F00E949A0720F039F49F3F19F426F4A7
:100CA0000C9490070EF4E095E7FB0C948A07E92F6B
:100CB0000E94B20758F3BA176207730784079507B3
:100CC00020F079F4A6F50C94D4070EF4E0950B2EE1
:100CD000BA2FA02D0B01B90190010C01CA01A0018E
:100CE0001124FF27591B99F0593F50F4503E68F1E9
:100CF0001A16F040A22F232F342F4427585FF3CF2A
:100D0000469537952795A795F0405395C9F77EF4FA
:100D10001F16BA0B620B730B840BBAF09150A1F043
:100D2000FF0FBB1F661F771F881FC2F70EC0BA0FC9
:100D3000621F731F841F48F4879577956795B79551
:100D4000F7959E3F08F0B0CF9395880F08F099274C
:100D5000EE0F9795879508950E94C0060C94A10701
:100D60000E949A0758F00E94930740F029F45F3FD1
:100D700029F00C948A0751110C94D5070C94900714
:100D80000E94B20768F39923B1F3552391F3951BA1
:100D9000550BBB27AA2762177307840738F09F5F9C
:100DA0005F4F220F331F441FAA1FA9F335D00E2E09
:100DB0003AF0E0E832D091505040E695001CCAF776
:100DC0002BD0FE2F29D0660F771F881FBB1F261739
:100DD00037074807AB07B0E809F0BB0B802DBF0110
:100DE000FF2793585F4F3AF09E3F510578F00C94DF
:100DF0008A070C94D5075F3FE4F3983ED4F38695B9
:100E000077956795B795F7959F5FC9F7880F911DFF
:100E10009695879597F90895E1E0660F771F881FEB
:100E2000BB1F621773078407BA0720F0621B730B9E
:100E3000840BBA0BEE1F88F7E09508950E94BA075D
:100E400088F09F5798F0B92F9927B751B0F0E1F08B
:100E5000660F771F881F991F1AF0BA95C9F714C03B
:100E6000B13091F00E94D407B1E008950C94D407FA
:100E7000672F782F8827B85F39F0B93FCCF3869574
:100E800077956795B395D9F73EF4909580957095D1
:100E900061957F4F8F4F9F4F0895E89409C097FB4E
:100EA0003EF490958095709561957F4F8F4F9F4F41
:100EB0009923A9F0F92F96E9BB279395F695879585
:100EC00077956795B795F111F8CFFAF4BB0F11F448
:100ED00060FF1BC06F5F7F4F8F4F9F4F16C08823EF
:100EE00011F096E911C0772321F09EE8872F762F25
:100EF00005C0662371F096E8862F70E060E02AF066
:100F00009A95660F771F881FDAF7880F9695879551
:100F100097F9089597F99F6780E870E060E0089579
:100F20009FEF80EC089500240A9416161706180601
:100F30000906089500240A941216130614060506DD
:100F40000895092E0394000C11F4882352F0BB0F6E
:100F500040F4BF2B11F460FF04C06F5F7F4F8F4FD1
:100F60009F4F089557FD9058440F551F59F05F3F0C
:100F700071F04795880F97FB991F61F09F3F79F0BB
:100F800087950895121613061406551FF2CF46953D
:100F9000F1DF08C0161617061806991FF1CF8695BF
:100FA0007105610508940895E894BB2766277727A3
:100FB000CB0197F908950E94EE070C94A1070E94B7
:100FC000930738F00E949A0720F0952311F00C94B3
:100FD0008A070C94900711240C94D5070E94B2073D
:100FE00070F3959FC1F3950F50E0551F629FF0017C
:100FF000729FBB27F00DB11D639FAA27F00DB11D95
:10100000AA1F649F6627B00DA11D661F829F22271D
:10101000B00DA11D621F739FB00DA11D621F839FA4
:10102000A00D611D221F749F3327A00D611D231F7A
:10103000849F600D211D822F762F6A2F11249F57C8
:1010400050409AF0F1F088234AF0EE0FFF1FBB1FCB
:10105000661F771F881F91505040A9F79E3F51058A
:1010600080F00C948A070C94D5075F3FE4F3983E18
:10107000D4F3869577956795B795F795E7959F5F34
:10108000C1F7FE2B880F911D9695879597F90895C6
:101090000E94BA07E8F09E37E8F09639B8F49E3817
:1010A00048F4672F782F8827985FF9CF8695779532
:1010B000679593959539D0F3B62FB1706B0F711D6D
:1010C000811D20F487957795679593950C946C080E
:1010D0000C9487080C94D507882371F4772321F0AA
:1010E0009850872B762F07C0662311F499270DC0DF
:1010F0009051862B70E060E02AF09A95660F771F7A
:10110000881FDAF7880F9695879597F908959F3F7E
:1011100031F0915020F4879577956795B795880FB2
:10112000911D9695879597F90895A1E21A2EAA1B0D
:10113000BB1BFD010DC0AA1FBB1FEE1FFF1FA21787
:10114000B307E407F50720F0A21BB30BE40BF50B84
:10115000661F771F881F991F1A9469F7609570950D
:10116000809590959B01AC01BD01CF010895EE0FD4
:10117000FF1F0590F491E02D099411E0CFE2D1E03A
:1011800004C0FE010E94B7082196C133D107C9F7F8
:04119000F894FFCF01
:101194005363616E6E696E6720545749206275739C
:1011A4000A005457492064657669636520666F7543
:1011B4006E642061742061646472657373200055E9
:1011C4006E6B6E6F776E206572726F722061742021
:1011D4006164647265737320004E6F205457492014
:1011E4006465766963657320666F756E640A00448E
:0E11F4006F6E65207363616E6E696E670A0030
:00000001FF
