:100000000C942F010C944C010C944C010C944C0159
:100010000C944C010C944C010C944C010C944C012C
:100020000C944C010C944C010C944C010C944C011C
:100030000C944C010C944C010C944C010C944C010C
:100040000C945C010C944C010C944C010C944C01EC
:100050000C944C010C944C010C944C010C944C01EC
:100060000C942A030C944C01E802EC02EC02EC0222
:10007000EC02EC02EC02EC02F401EC02EC02EC0209
:10008000EC02EC02EC02EC02F401EC02EC02EC02F9
:10009000EC02EC02EC02EC02FD01EC02EC02EC02E0
:1000A000EC02EC02EC02EC022102EC02EC02EC02AB
:1000B000EC02EC02EC02EC02FD01EC02EC02EC02C0
:1000C000EC02EC02EC02EC022702EC02EC02EC0285
:1000D000EC02EC02EC02EC022D02EC02EC02EC026F
:1000E000EC02EC02EC02EC023D02EC02EC02EC024F
:1000F000EC02EC02EC02EC026402EC02EC02EC0218
:10010000EC02EC02EC02EC023302EC02EC02EC0238
:10011000EC02EC02EC02EC024B02EC02EC02EC0210
:10012000EC02EC02EC02EC026802EC02EC02EC02E3
:10013000EC02EC02EC02EC026802EC02EC02EC02D3
:10014000EC02EC02EC02EC026802EC02EC02EC02C3
:10015000EC02EC02EC02EC026802EC02EC02EC02B3
:10016000EC02EC02EC02EC027302EC02EC02EC0298
:10017000EC02EC02EC02EC02A302EC02EC02EC0258
:10018000EC02EC02EC02EC027302EC02EC02EC0278
:10019000EC02EC02EC02EC02A302EC02EC02EC0238
:1001A000EC02EC02EC02EC029002EC02EC02EC023B
:1001B000EC02EC02EC02EC02A802EC02EC02EC0213
:1001C000EC02EC02EC02EC02A802EC02EC02EC0203
:1001D000EC02EC02EC02EC02BF02EC02EC02EC02DC
:1001E000EC02EC02EC02EC02DF02EC02EC02EC02AC
:1001F000EC02EC02EC02EC02DF02EC02EC02EC029C
:10020000EC02EC02EC02EC02EC02EC02EC02EC027E
:10021000EC02EC02EC02EC02EC02EC02EC02EC026E
:10022000EC02EC02EC02EC02EC02EC02EC02EC025E
:10023000EC02EC02EC02EC02EC02EC02EC02EC024E
:10024000EC02EC02EC02EC02EC02EC02EC02EC023E
:10025000EC02EC02EC02EC02E5025003570311241D
:100260001FBECFEFD8E0DEBFCDBF21E0A0E0B1E000
:1002700001C01D92A538B207E1F711E0CEE2D1E04E
:1002800004C02197FE010E947F03CD32D107C9F738
:100290000E946A030C9485030C940000FC014181C8
:1002A00052816381748140585F4F6F4F7F4F41830C
:1002B00052836383748308951F920F920FB60F9237
:1002C00011242F933F934F935F936F937F938F935B
:1002D0009F93AF93BF93EF93FF9380E091E00E94D1
:1002E0004E01FF91EF91BF91AF919F918F917F91BF
:1002F0006F915F914F913F912F910F900FBE0F9093
:100300001F901895CF92DF92EF92FF920F931F9359
:10031000FC01718360835383428335832483178375
:100320000683F186E086D386C2861F910F91FF90E7
:10033000EF90DF90CF900895FC011182108213821C
:1003400012821582148217821682118610861386F5
:1003500012860895FC018485811113C081E0848791
:10036000818B660F668BF894882351F0A481B58148
:1003700086898C93A085B18585E48C9380E0F4CF49
:1003800078940895FC0172AF61AF0895FC0174AFD9
:1003900063AF0895DC011896ED91FC91199725EC57
:1003A000208352961C920895DC011896ED91FC91E1
:1003B000199785ED80831896ED91FC91199790819E
:1003C00094FDF9CF52961C920895CF93DF93EC01E0
:1003D000EA81FB818081E82FE87F8E2F90E0FC018D
:1003E000EC5CFF4F0C947F03EE81FF818E8980834C
:1003F000E885F98585EC8083EFC09FA988AD9817C3
:1004000088F4EE81FF818FA991E0980F9FABDE0108
:10041000A80FB11D57968C918083E885F98585ECEE
:100420008083DAC08B89882321F0CE010E94D40119
:10043000D3C081E08C8BE885F98584EA80831A8AB1
:10044000CBC080E28D8BCE010E94D401C5C080E379
:100450008D8BCE010E94D401BFC088E38D8BCE016D
:100460000E94CA01B9C08FA991E0980F9FAB9091EB
:10047000BB00FE01E80FF11D978B9FA988AD98176F
:1004800028F4E885F98585EC8083A6C0E885F985A0
:1004900085E88083A1C08FA991E0980F9FAB9091D0
:1004A000BB00FE01E80FF11D978B8B89882321F09B
:1004B000CE010E94D40190C081E08C8BE885F98543
:1004C00084EA80831A8A88C0CE010E94D40184C045
:1004D00083E08A8BFE01E158FF4F1082E885F985A1
:1004E00085EC808379C0FE01E158FF4F8081803226
:1004F00090F4808191E0980F9083EE81FF8190814C
:10050000FE01E80FF11DE15AFF4F9083E885F98560
:1005100085EC808361C0E885F98585E880835CC0CF
:10052000CE010E94D401E9ADFAAD309741F0DE0171
:10053000A158BF4F6C91CE01815A9F4F0995CE01B2
:100540000E94CA0149C0E885F98585E8808344C0D6
:1005500084E08A8BFE01E35AFF4F108231961082AD
:10056000EBADFCAD309709F00995FE01E25AFF4F63
:100570008081811104C081E080838FEF8DAF4E8137
:100580005F81FE01E35AFF4F808191E0980F9083D5
:100590009E01280F311DD901DD968C91DA018C93D3
:1005A000908131968081981728F4E885F98585EC4B
:1005B000808312C0E885F98585E880830DC0E885D1
:1005C000F98585EC80831A8A07C088EF8D8B04C07B
:1005D0001D8ACE010E94D401DF91CF910895AF9280
:1005E000BF92CF92DF92EF92FF920F931F93CF9320
:1005F000DF93EC015B010197C9F46F3F7F4FB1F4CA
:100600000F2EFDEBCF2ED12CF02D0F2EFCEBEF2E6D
:10061000F12CF02D0BEB10E02AEB30E049EB50E031
:1006200068EB70E085E091E00E948201CD2B39F407
:10063000AB20A09421F485E091E00E949C01DF9121
:10064000CF911F910F91FF90EF90DF90CF90BF90CF
:10065000AF9008951F920F920FB60F9211242F930F
:100660003F934F935F936F937F938F939F93AF933A
:10067000BF93EF93FF9385E091E00E94E501FF9126
:10068000EF91BF91AF919F918F917F916F915F910A
:100690004F913F912F910F900FBE0F901F90189583
:1006A0006FEF7FEF81E090E00E94EF0208956FEF1F
:1006B0007FEF80E090E00E94EF0208959C0190E0BF
:1006C000961730F4F901E90FF11D10829F5FF8CF02
:1006D000089508958AB184608AB96AE085E091E05E
:1006E0000E94AA016EE573E085E091E00E94C201DC
:1006F00069E673E085E091E00E94C601FFCFEE0F4E
:10070000FF1F0590F491E02D099411E0CEE2D1E0B5
:1007100004C0FE010E947F032196CF32D107C9F7A2
:04072000F894FFCF7B
:00000001FF
